{
  "_format": "hh-sol-artifact-1",
  "contractName": "EtherDIDRegistrySignedOnly",
  "sourceName": "contracts/EtherDIDRegistrySignedOnly.sol",
  "abi": [
    {
      "anonymous": false,
      "inputs": [
        {
          "indexed": true,
          "internalType": "address",
          "name": "identity",
          "type": "address"
        },
        {
          "indexed": false,
          "internalType": "bytes32",
          "name": "name",
          "type": "bytes32"
        },
        {
          "indexed": false,
          "internalType": "bytes",
          "name": "value",
          "type": "bytes"
        },
        {
          "indexed": false,
          "internalType": "uint256",
          "name": "validTo",
          "type": "uint256"
        },
        {
          "indexed": false,
          "internalType": "uint256",
          "name": "previousChange",
          "type": "uint256"
        }
      ],
      "name": "DIDAttributeChanged",
      "type": "event"
    },
    {
      "anonymous": false,
      "inputs": [
        {
          "indexed": true,
          "internalType": "address",
          "name": "identity",
          "type": "address"
        },
        {
          "indexed": false,
          "internalType": "bytes32",
          "name": "delegateType",
          "type": "bytes32"
        },
        {
          "indexed": false,
          "internalType": "address",
          "name": "delegate",
          "type": "address"
        },
        {
          "indexed": false,
          "internalType": "uint256",
          "name": "validTo",
          "type": "uint256"
        },
        {
          "indexed": false,
          "internalType": "uint256",
          "name": "previousChange",
          "type": "uint256"
        }
      ],
      "name": "DIDDelegateChanged",
      "type": "event"
    },
    {
      "anonymous": false,
      "inputs": [
        {
          "indexed": true,
          "internalType": "address",
          "name": "identity",
          "type": "address"
        },
        {
          "indexed": false,
          "internalType": "address",
          "name": "owner",
          "type": "address"
        },
        {
          "indexed": false,
          "internalType": "uint256",
          "name": "previousChange",
          "type": "uint256"
        }
      ],
      "name": "DIDOwnerChanged",
      "type": "event"
    },
    {
      "inputs": [
        {
          "internalType": "address",
          "name": "identity",
          "type": "address"
        },
        {
          "internalType": "uint8",
          "name": "sigV",
          "type": "uint8"
        },
        {
          "internalType": "bytes32",
          "name": "sigR",
          "type": "bytes32"
        },
        {
          "internalType": "bytes32",
          "name": "sigS",
          "type": "bytes32"
        },
        {
          "internalType": "bytes32",
          "name": "delegateType",
          "type": "bytes32"
        },
        {
          "internalType": "address",
          "name": "delegate",
          "type": "address"
        },
        {
          "internalType": "uint256",
          "name": "validity",
          "type": "uint256"
        }
      ],
      "name": "addDelegateSigned",
      "outputs": [],
      "stateMutability": "nonpayable",
      "type": "function"
    },
    {
      "inputs": [
        {
          "internalType": "address",
          "name": "identity",
          "type": "address"
        },
        {
          "internalType": "uint8",
          "name": "sigV",
          "type": "uint8"
        },
        {
          "internalType": "bytes32",
          "name": "sigR",
          "type": "bytes32"
        },
        {
          "internalType": "bytes32",
          "name": "sigS",
          "type": "bytes32"
        },
        {
          "internalType": "address",
          "name": "newOwner",
          "type": "address"
        }
      ],
      "name": "changeOwnerSigned",
      "outputs": [],
      "stateMutability": "nonpayable",
      "type": "function"
    },
    {
      "inputs": [
        {
          "internalType": "address",
          "name": "",
          "type": "address"
        }
      ],
      "name": "changed",
      "outputs": [
        {
          "internalType": "uint256",
          "name": "",
          "type": "uint256"
        }
      ],
      "stateMutability": "view",
      "type": "function"
    },
    {
      "inputs": [
        {
          "internalType": "address",
          "name": "identity",
          "type": "address"
        },
        {
          "internalType": "uint8",
          "name": "sigV",
          "type": "uint8"
        },
        {
          "internalType": "bytes32",
          "name": "sigR",
          "type": "bytes32"
        },
        {
          "internalType": "bytes32",
          "name": "sigS",
          "type": "bytes32"
        },
        {
          "internalType": "bytes32",
          "name": "hash",
          "type": "bytes32"
        }
      ],
      "name": "checkSignature",
      "outputs": [
        {
          "internalType": "address",
          "name": "",
          "type": "address"
        }
      ],
      "stateMutability": "nonpayable",
      "type": "function"
    },
    {
      "inputs": [
        {
          "internalType": "address",
          "name": "",
          "type": "address"
        },
        {
          "internalType": "bytes32",
          "name": "",
          "type": "bytes32"
        },
        {
          "internalType": "address",
          "name": "",
          "type": "address"
        }
      ],
      "name": "delegates",
      "outputs": [
        {
          "internalType": "uint256",
          "name": "",
          "type": "uint256"
        }
      ],
      "stateMutability": "view",
      "type": "function"
    },
    {
      "inputs": [
        {
          "internalType": "address",
          "name": "identity",
          "type": "address"
        }
      ],
      "name": "getNonce",
      "outputs": [
        {
          "internalType": "uint256",
          "name": "",
          "type": "uint256"
        }
      ],
      "stateMutability": "view",
      "type": "function"
    },
    {
      "inputs": [
        {
          "internalType": "address",
          "name": "identity",
          "type": "address"
        }
      ],
      "name": "identityOwner",
      "outputs": [
        {
          "internalType": "address",
          "name": "",
          "type": "address"
        }
      ],
      "stateMutability": "view",
      "type": "function"
    },
    {
      "inputs": [
        {
          "internalType": "address",
          "name": "",
          "type": "address"
        }
      ],
      "name": "nonce",
      "outputs": [
        {
          "internalType": "uint256",
          "name": "",
          "type": "uint256"
        }
      ],
      "stateMutability": "view",
      "type": "function"
    },
    {
      "inputs": [
        {
          "internalType": "address",
          "name": "",
          "type": "address"
        }
      ],
      "name": "owners",
      "outputs": [
        {
          "internalType": "address",
          "name": "",
          "type": "address"
        }
      ],
      "stateMutability": "view",
      "type": "function"
    },
    {
      "inputs": [
        {
          "internalType": "address",
          "name": "identity",
          "type": "address"
        },
        {
          "internalType": "uint8",
          "name": "sigV",
          "type": "uint8"
        },
        {
          "internalType": "bytes32",
          "name": "sigR",
          "type": "bytes32"
        },
        {
          "internalType": "bytes32",
          "name": "sigS",
          "type": "bytes32"
        },
        {
          "internalType": "bytes32",
          "name": "name",
          "type": "bytes32"
        },
        {
          "internalType": "bytes",
          "name": "value",
          "type": "bytes"
        }
      ],
      "name": "revokeAttributeSigned",
      "outputs": [],
      "stateMutability": "nonpayable",
      "type": "function"
    },
    {
      "inputs": [
        {
          "internalType": "address",
          "name": "identity",
          "type": "address"
        },
        {
          "internalType": "uint8",
          "name": "sigV",
          "type": "uint8"
        },
        {
          "internalType": "bytes32",
          "name": "sigR",
          "type": "bytes32"
        },
        {
          "internalType": "bytes32",
          "name": "sigS",
          "type": "bytes32"
        },
        {
          "internalType": "bytes32",
          "name": "delegateType",
          "type": "bytes32"
        },
        {
          "internalType": "address",
          "name": "delegate",
          "type": "address"
        }
      ],
      "name": "revokeDelegateSigned",
      "outputs": [],
      "stateMutability": "nonpayable",
      "type": "function"
    },
    {
      "inputs": [
        {
          "internalType": "address",
          "name": "identity",
          "type": "address"
        },
        {
          "internalType": "uint8",
          "name": "sigV",
          "type": "uint8"
        },
        {
          "internalType": "bytes32",
          "name": "sigR",
          "type": "bytes32"
        },
        {
          "internalType": "bytes32",
          "name": "sigS",
          "type": "bytes32"
        },
        {
          "internalType": "bytes32",
          "name": "name",
          "type": "bytes32"
        },
        {
          "internalType": "bytes",
          "name": "value",
          "type": "bytes"
        },
        {
          "internalType": "uint256",
          "name": "validity",
          "type": "uint256"
        }
      ],
      "name": "setAttributeSigned",
      "outputs": [],
      "stateMutability": "nonpayable",
      "type": "function"
    },
    {
      "inputs": [
        {
          "internalType": "address",
          "name": "identity",
          "type": "address"
        },
        {
          "internalType": "string",
          "name": "funcName",
          "type": "string"
        },
        {
          "internalType": "address",
          "name": "newOwner",
          "type": "address"
        }
      ],
      "name": "testHash",
      "outputs": [
        {
          "internalType": "bytes32",
          "name": "",
          "type": "bytes32"
        }
      ],
      "stateMutability": "view",
      "type": "function"
    },
    {
      "inputs": [
        {
          "internalType": "address",
          "name": "identity",
          "type": "address"
        },
        {
          "internalType": "bytes32",
          "name": "delegateType",
          "type": "bytes32"
        },
        {
          "internalType": "address",
          "name": "delegate",
          "type": "address"
        }
      ],
      "name": "validDelegate",
      "outputs": [
        {
          "internalType": "bool",
          "name": "",
          "type": "bool"
        }
      ],
      "stateMutability": "view",
      "type": "function"
    }
  ],
  "bytecode": "0x608060405234801561001057600080fd5b506125cd806100206000396000f3fe608060405234801561001057600080fd5b50600436106100ea5760003560e01c806370ae92d21161008c578063930726841161006657806393072684146102a75780639c2c1b2b146102c3578063e476af5c146102df578063f96d0f9f146102fb576100ea565b806370ae92d2146102175780637ceb3794146102475780638733d4e814610277576100ea565b8063240cf1fa116100c8578063240cf1fa1461016b5780632d0335ab14610187578063622b2a3c146101b757806363723373146101e7576100ea565b8063022914a7146100ef5780630d44625b1461011f578063123b5e981461014f575b600080fd5b610109600480360381019061010491906113f1565b61032b565b604051610116919061142d565b60405180910390f35b6101396004803603810190610134919061147e565b61035e565b60405161014691906114ea565b60405180910390f35b610169600480360381019061016491906116b0565b610390565b005b6101856004803603810190610180919061176e565b61043b565b005b6101a1600480360381019061019c91906113f1565b6104de565b6040516101ae91906114ea565b60405180910390f35b6101d160048036038101906101cc919061147e565b610527565b6040516101de9190611804565b60405180910390f35b61020160048036038101906101fc919061181f565b6105ed565b60405161020e919061142d565b60405180910390f35b610231600480360381019061022c91906113f1565b610727565b60405161023e91906114ea565b60405180910390f35b610261600480360381019061025c91906118fa565b61073f565b60405161026e919061197d565b60405180910390f35b610291600480360381019061028c91906113f1565b6107d4565b60405161029e919061142d565b60405180910390f35b6102c160048036038101906102bc9190611998565b61087f565b005b6102dd60048036038101906102d89190611a25565b610926565b005b6102f960048036038101906102f49190611ac7565b6109d1565b005b610315600480360381019061031091906113f1565b610a78565b60405161032291906114ea565b60405180910390f35b60006020528060005260406000206000915054906101000a900473ffffffffffffffffffffffffffffffffffffffff1681565b600160205282600052604060002060205281600052604060002060205280600052604060002060009250925050505481565b6000601960f81b600060f81b33600360006103aa8d6107d4565b73ffffffffffffffffffffffffffffffffffffffff1673ffffffffffffffffffffffffffffffffffffffff168152602001908152602001600020548b888888604051602001610400989796959493929190611d0f565b604051602081830303815290604052805190602001209050610431886104298a8a8a8a876105ed565b868686610a90565b5050505050505050565b6000601960f81b600060f81b33600360006104558b6107d4565b73ffffffffffffffffffffffffffffffffffffffff1673ffffffffffffffffffffffffffffffffffffffff1681526020019081526020016000205489866040516020016104a796959493929190611df4565b6040516020818303038152906040528051906020012090506104d6866104d088888888876105ed565b84610bf3565b505050505050565b6000600360008373ffffffffffffffffffffffffffffffffffffffff1673ffffffffffffffffffffffffffffffffffffffff168152602001908152602001600020549050919050565b600080600160008673ffffffffffffffffffffffffffffffffffffffff1673ffffffffffffffffffffffffffffffffffffffff16815260200190815260200160002060008560405160200161057c919061197d565b60405160208183030381529060405280519060200120815260200190815260200160002060008473ffffffffffffffffffffffffffffffffffffffff1673ffffffffffffffffffffffffffffffffffffffff1681526020019081526020016000205490504281119150509392505050565b6000806105f983610dc2565b90506000600182888888604051600081526020016040526040516106209493929190611e7e565b6020604051602081039080840390855afa158015610642573d6000803e3d6000fd5b505050602060405103519050610657886107d4565b73ffffffffffffffffffffffffffffffffffffffff168173ffffffffffffffffffffffffffffffffffffffff16146106c4576040517f08c379a00000000000000000000000000000000000000000000000000000000081526004016106bb90611f20565b60405180910390fd5b600360008273ffffffffffffffffffffffffffffffffffffffff1673ffffffffffffffffffffffffffffffffffffffff168152602001908152602001600020600081548092919061071490611f6f565b9190505550809250505095945050505050565b60036020528060005260406000206000915090505481565b600080601960f81b600060f81b336003600061075a8b6107d4565b73ffffffffffffffffffffffffffffffffffffffff1673ffffffffffffffffffffffffffffffffffffffff16815260200190815260200160002054898989896040516020016107b0989796959493929190611fdc565b60405160208183030381529060405280519060200120905080915050949350505050565b6000806000808473ffffffffffffffffffffffffffffffffffffffff1673ffffffffffffffffffffffffffffffffffffffff16815260200190815260200160002060009054906101000a900473ffffffffffffffffffffffffffffffffffffffff169050600073ffffffffffffffffffffffffffffffffffffffff168173ffffffffffffffffffffffffffffffffffffffff1614610875578091505061087a565b829150505b919050565b6000601960f81b600060f81b33600360006108998c6107d4565b73ffffffffffffffffffffffffffffffffffffffff1673ffffffffffffffffffffffffffffffffffffffff168152602001908152602001600020548a87876040516020016108ed97969594939291906120a7565b60405160208183030381529060405280519060200120905061091d8761091689898989876105ed565b8585610df2565b50505050505050565b6000601960f81b600060f81b33600360006109408d6107d4565b73ffffffffffffffffffffffffffffffffffffffff1673ffffffffffffffffffffffffffffffffffffffff168152602001908152602001600020548b88888860405160200161099698979695949392919061217f565b6040516020818303038152906040528051906020012090506109c7886109bf8a8a8a8a876105ed565b868686611001565b5050505050505050565b6000601960f81b600060f81b33600360006109eb8c6107d4565b73ffffffffffffffffffffffffffffffffffffffff1673ffffffffffffffffffffffffffffffffffffffff168152602001908152602001600020548a8787604051602001610a3f9796959493929190612268565b604051602081830303815290604052805190602001209050610a6f87610a6889898989876105ed565b8585611227565b50505050505050565b60026020528060005260406000206000915090505481565b8484610a9b826107d4565b73ffffffffffffffffffffffffffffffffffffffff168173ffffffffffffffffffffffffffffffffffffffff1614610b08576040517f08c379a0000000000000000000000000000000000000000000000000000000008152600401610aff9061233c565b60405180910390fd5b8673ffffffffffffffffffffffffffffffffffffffff167f18ab6b2ae3d64306c00ce663125f2bd680e441a098de1635bd7ad8b0d44965e486868642610b4e919061235c565b600260008d73ffffffffffffffffffffffffffffffffffffffff1673ffffffffffffffffffffffffffffffffffffffff16815260200190815260200160002054604051610b9e94939291906123da565b60405180910390a243600260008973ffffffffffffffffffffffffffffffffffffffff1673ffffffffffffffffffffffffffffffffffffffff1681526020019081526020016000208190555050505050505050565b8282610bfe826107d4565b73ffffffffffffffffffffffffffffffffffffffff168173ffffffffffffffffffffffffffffffffffffffff1614610c6b576040517f08c379a0000000000000000000000000000000000000000000000000000000008152600401610c629061233c565b60405180910390fd5b826000808773ffffffffffffffffffffffffffffffffffffffff1673ffffffffffffffffffffffffffffffffffffffff16815260200190815260200160002060006101000a81548173ffffffffffffffffffffffffffffffffffffffff021916908373ffffffffffffffffffffffffffffffffffffffff1602179055508473ffffffffffffffffffffffffffffffffffffffff167f38a5a6e68f30ed1ab45860a4afb34bcb2fc00f22ca462d249b8a8d40cda6f7a384600260008973ffffffffffffffffffffffffffffffffffffffff1673ffffffffffffffffffffffffffffffffffffffff16815260200190815260200160002054604051610d6f929190612426565b60405180910390a243600260008773ffffffffffffffffffffffffffffffffffffffff1673ffffffffffffffffffffffffffffffffffffffff168152602001908152602001600020819055505050505050565b600081604051602001610dd5919061249b565b604051602081830303815290604052805190602001209050919050565b8383610dfd826107d4565b73ffffffffffffffffffffffffffffffffffffffff168173ffffffffffffffffffffffffffffffffffffffff1614610e6a576040517f08c379a0000000000000000000000000000000000000000000000000000000008152600401610e619061233c565b60405180910390fd5b42600160008873ffffffffffffffffffffffffffffffffffffffff1673ffffffffffffffffffffffffffffffffffffffff168152602001908152602001600020600086604051602001610ebd919061197d565b60405160208183030381529060405280519060200120815260200190815260200160002060008573ffffffffffffffffffffffffffffffffffffffff1673ffffffffffffffffffffffffffffffffffffffff168152602001908152602001600020819055508573ffffffffffffffffffffffffffffffffffffffff167f5a5084339536bcab65f20799fcc58724588145ca054bd2be626174b27ba156f7858542600260008c73ffffffffffffffffffffffffffffffffffffffff1673ffffffffffffffffffffffffffffffffffffffff16815260200190815260200160002054604051610fad94939291906124c1565b60405180910390a243600260008873ffffffffffffffffffffffffffffffffffffffff1673ffffffffffffffffffffffffffffffffffffffff16815260200190815260200160002081905550505050505050565b848461100c826107d4565b73ffffffffffffffffffffffffffffffffffffffff168173ffffffffffffffffffffffffffffffffffffffff1614611079576040517f08c379a00000000000000000000000000000000000000000000000000000000081526004016110709061233c565b60405180910390fd5b8242611085919061235c565b600160008973ffffffffffffffffffffffffffffffffffffffff1673ffffffffffffffffffffffffffffffffffffffff1681526020019081526020016000206000876040516020016110d7919061197d565b60405160208183030381529060405280519060200120815260200190815260200160002060008673ffffffffffffffffffffffffffffffffffffffff1673ffffffffffffffffffffffffffffffffffffffff168152602001908152602001600020819055508673ffffffffffffffffffffffffffffffffffffffff167f5a5084339536bcab65f20799fcc58724588145ca054bd2be626174b27ba156f786868642611182919061235c565b600260008d73ffffffffffffffffffffffffffffffffffffffff1673ffffffffffffffffffffffffffffffffffffffff168152602001908152602001600020546040516111d294939291906124c1565b60405180910390a243600260008973ffffffffffffffffffffffffffffffffffffffff1673ffffffffffffffffffffffffffffffffffffffff1681526020019081526020016000208190555050505050505050565b8383611232826107d4565b73ffffffffffffffffffffffffffffffffffffffff168173ffffffffffffffffffffffffffffffffffffffff161461129f576040517f08c379a00000000000000000000000000000000000000000000000000000000081526004016112969061233c565b60405180910390fd5b8573ffffffffffffffffffffffffffffffffffffffff167f18ab6b2ae3d64306c00ce663125f2bd680e441a098de1635bd7ad8b0d44965e485856000600260008c73ffffffffffffffffffffffffffffffffffffffff1673ffffffffffffffffffffffffffffffffffffffff1681526020019081526020016000205460405161132b949392919061254b565b60405180910390a243600260008873ffffffffffffffffffffffffffffffffffffffff1673ffffffffffffffffffffffffffffffffffffffff16815260200190815260200160002081905550505050505050565b6000604051905090565b600080fd5b600080fd5b600073ffffffffffffffffffffffffffffffffffffffff82169050919050565b60006113be82611393565b9050919050565b6113ce816113b3565b81146113d957600080fd5b50565b6000813590506113eb816113c5565b92915050565b60006020828403121561140757611406611389565b5b6000611415848285016113dc565b91505092915050565b611427816113b3565b82525050565b6000602082019050611442600083018461141e565b92915050565b6000819050919050565b61145b81611448565b811461146657600080fd5b50565b60008135905061147881611452565b92915050565b60008060006060848603121561149757611496611389565b5b60006114a5868287016113dc565b93505060206114b686828701611469565b92505060406114c7868287016113dc565b9150509250925092565b6000819050919050565b6114e4816114d1565b82525050565b60006020820190506114ff60008301846114db565b92915050565b600060ff82169050919050565b61151b81611505565b811461152657600080fd5b50565b60008135905061153881611512565b92915050565b600080fd5b600080fd5b6000601f19601f8301169050919050565b7f4e487b7100000000000000000000000000000000000000000000000000000000600052604160045260246000fd5b61159182611548565b810181811067ffffffffffffffff821117156115b0576115af611559565b5b80604052505050565b60006115c361137f565b90506115cf8282611588565b919050565b600067ffffffffffffffff8211156115ef576115ee611559565b5b6115f882611548565b9050602081019050919050565b82818337600083830152505050565b6000611627611622846115d4565b6115b9565b90508281526020810184848401111561164357611642611543565b5b61164e848285611605565b509392505050565b600082601f83011261166b5761166a61153e565b5b813561167b848260208601611614565b91505092915050565b61168d816114d1565b811461169857600080fd5b50565b6000813590506116aa81611684565b92915050565b600080600080600080600060e0888a0312156116cf576116ce611389565b5b60006116dd8a828b016113dc565b97505060206116ee8a828b01611529565b96505060406116ff8a828b01611469565b95505060606117108a828b01611469565b94505060806117218a828b01611469565b93505060a088013567ffffffffffffffff8111156117425761174161138e565b5b61174e8a828b01611656565b92505060c061175f8a828b0161169b565b91505092959891949750929550565b600080600080600060a0868803121561178a57611789611389565b5b6000611798888289016113dc565b95505060206117a988828901611529565b94505060406117ba88828901611469565b93505060606117cb88828901611469565b92505060806117dc888289016113dc565b9150509295509295909350565b60008115159050919050565b6117fe816117e9565b82525050565b600060208201905061181960008301846117f5565b92915050565b600080600080600060a0868803121561183b5761183a611389565b5b6000611849888289016113dc565b955050602061185a88828901611529565b945050604061186b88828901611469565b935050606061187c88828901611469565b925050608061188d88828901611469565b9150509295509295909350565b600080fd5b600080fd5b60008083601f8401126118ba576118b961153e565b5b8235905067ffffffffffffffff8111156118d7576118d661189a565b5b6020830191508360018202830111156118f3576118f261189f565b5b9250929050565b6000806000806060858703121561191457611913611389565b5b6000611922878288016113dc565b945050602085013567ffffffffffffffff8111156119435761194261138e565b5b61194f878288016118a4565b93509350506040611962878288016113dc565b91505092959194509250565b61197781611448565b82525050565b6000602082019050611992600083018461196e565b92915050565b60008060008060008060c087890312156119b5576119b4611389565b5b60006119c389828a016113dc565b96505060206119d489828a01611529565b95505060406119e589828a01611469565b94505060606119f689828a01611469565b9350506080611a0789828a01611469565b92505060a0611a1889828a016113dc565b9150509295509295509295565b600080600080600080600060e0888a031215611a4457611a43611389565b5b6000611a528a828b016113dc565b9750506020611a638a828b01611529565b9650506040611a748a828b01611469565b9550506060611a858a828b01611469565b9450506080611a968a828b01611469565b93505060a0611aa78a828b016113dc565b92505060c0611ab88a828b0161169b565b91505092959891949750929550565b60008060008060008060c08789031215611ae457611ae3611389565b5b6000611af289828a016113dc565b9650506020611b0389828a01611529565b9550506040611b1489828a01611469565b9450506060611b2589828a01611469565b9350506080611b3689828a01611469565b92505060a087013567ffffffffffffffff811115611b5757611b5661138e565b5b611b6389828a01611656565b9150509295509295509295565b60007fff0000000000000000000000000000000000000000000000000000000000000082169050919050565b6000819050919050565b611bb7611bb282611b70565b611b9c565b82525050565b60008160601b9050919050565b6000611bd582611bbd565b9050919050565b6000611be782611bca565b9050919050565b611bff611bfa826113b3565b611bdc565b82525050565b6000819050919050565b611c20611c1b826114d1565b611c05565b82525050565b600081905092915050565b7f7365744174747269627574650000000000000000000000000000000000000000600082015250565b6000611c67600c83611c26565b9150611c7282611c31565b600c82019050919050565b6000819050919050565b611c98611c9382611448565b611c7d565b82525050565b600081519050919050565b600081905092915050565b60005b83811015611cd2578082015181840152602081019050611cb7565b60008484015250505050565b6000611ce982611c9e565b611cf38185611ca9565b9350611d03818560208601611cb4565b80840191505092915050565b6000611d1b828b611ba6565b600182019150611d2b828a611ba6565b600182019150611d3b8289611bee565b601482019150611d4b8288611c0f565b602082019150611d5b8287611bee565b601482019150611d6a82611c5a565b9150611d768286611c87565b602082019150611d868285611cde565b9150611d928284611c0f565b6020820191508190509998505050505050505050565b7f6368616e67654f776e6572000000000000000000000000000000000000000000600082015250565b6000611dde600b83611c26565b9150611de982611da8565b600b82019050919050565b6000611e008289611ba6565b600182019150611e108288611ba6565b600182019150611e208287611bee565b601482019150611e308286611c0f565b602082019150611e408285611bee565b601482019150611e4f82611dd1565b9150611e5b8284611bee565b601482019150819050979650505050505050565b611e7881611505565b82525050565b6000608082019050611e93600083018761196e565b611ea06020830186611e6f565b611ead604083018561196e565b611eba606083018461196e565b95945050505050565b600082825260208201905092915050565b7f6261645f7369676e617475726500000000000000000000000000000000000000600082015250565b6000611f0a600d83611ec3565b9150611f1582611ed4565b602082019050919050565b60006020820190508181036000830152611f3981611efd565b9050919050565b7f4e487b7100000000000000000000000000000000000000000000000000000000600052601160045260246000fd5b6000611f7a826114d1565b91507fffffffffffffffffffffffffffffffffffffffffffffffffffffffffffffffff8203611fac57611fab611f40565b5b600182019050919050565b6000611fc38385611c26565b9350611fd0838584611605565b82840190509392505050565b6000611fe8828b611ba6565b600182019150611ff8828a611ba6565b6001820191506120088289611bee565b6014820191506120188288611c0f565b6020820191506120288287611bee565b601482019150612039828587611fb7565b91506120458284611bee565b6014820191508190509998505050505050505050565b7f7265766f6b6544656c6567617465000000000000000000000000000000000000600082015250565b6000612091600e83611c26565b915061209c8261205b565b600e82019050919050565b60006120b3828a611ba6565b6001820191506120c38289611ba6565b6001820191506120d38288611bee565b6014820191506120e38287611c0f565b6020820191506120f38286611bee565b60148201915061210282612084565b915061210e8285611c87565b60208201915061211e8284611bee565b60148201915081905098975050505050505050565b7f61646444656c6567617465000000000000000000000000000000000000000000600082015250565b6000612169600b83611c26565b915061217482612133565b600b82019050919050565b600061218b828b611ba6565b60018201915061219b828a611ba6565b6001820191506121ab8289611bee565b6014820191506121bb8288611c0f565b6020820191506121cb8287611bee565b6014820191506121da8261215c565b91506121e68286611c87565b6020820191506121f68285611bee565b6014820191506122068284611c0f565b6020820191508190509998505050505050505050565b7f7265766f6b654174747269627574650000000000000000000000000000000000600082015250565b6000612252600f83611c26565b915061225d8261221c565b600f82019050919050565b6000612274828a611ba6565b6001820191506122848289611ba6565b6001820191506122948288611bee565b6014820191506122a48287611c0f565b6020820191506122b48286611bee565b6014820191506122c382612245565b91506122cf8285611c87565b6020820191506122df8284611cde565b915081905098975050505050505050565b7f6261645f6163746f720000000000000000000000000000000000000000000000600082015250565b6000612326600983611ec3565b9150612331826122f0565b602082019050919050565b6000602082019050818103600083015261235581612319565b9050919050565b6000612367826114d1565b9150612372836114d1565b925082820190508082111561238a57612389611f40565b5b92915050565b600082825260208201905092915050565b60006123ac82611c9e565b6123b68185612390565b93506123c6818560208601611cb4565b6123cf81611548565b840191505092915050565b60006080820190506123ef600083018761196e565b818103602083015261240181866123a1565b905061241060408301856114db565b61241d60608301846114db565b95945050505050565b600060408201905061243b600083018561141e565b61244860208301846114db565b9392505050565b7f19457468657265756d205369676e6564204d6573736167653a0a333200000000600082015250565b6000612485601c83611c26565b91506124908261244f565b601c82019050919050565b60006124a682612478565b91506124b28284611c87565b60208201915081905092915050565b60006080820190506124d6600083018761196e565b6124e3602083018661141e565b6124f060408301856114db565b6124fd60608301846114db565b95945050505050565b6000819050919050565b6000819050919050565b600061253561253061252b84612506565b612510565b6114d1565b9050919050565b6125458161251a565b82525050565b6000608082019050612560600083018761196e565b818103602083015261257281866123a1565b9050612581604083018561253c565b61258e60608301846114db565b9594505050505056fea26469706673582212208c877aa25909e87f56e740dd927be35348628a0432f9f487fb6eea35d9a1b63864736f6c63430008130033",
  "linkReferences": {},
  "deployedLinkReferences": {}
}